:100A4E001457C0F9A4B0999282F880908883C6A1F9
:100A5E00868E7FFFC8BF0628111111111111082EA5
:100A6E00BD1800000081C3E7084BEFE7C300C3C306
:100A7E0093BB081BFFFFFFFFFFFFFFFF02190000E4
:100A8E000224000002260000110821212149204CD9
:100A9E004F564520594F55212121001536304131F1
:100AAE00423243334434453546362B372D382A39B6
:020ABE002F0007
:100AC1008C6E8D6F8B6B8A6C896D120800F5707559
:100AD1007100757201C3E572956FE571956E502BCA
:100AE100AB6BAA6CA96D857282857183120819FF9F
:100AF100E57224FFFDE57134FF8D82F583EF120865
:100B0100580572E57270CE057180CAAB6BAA6CA9EB
:100B11006DE56F24FFFFE56E34FF8F82F583E5708D
:030B21000208586F
:100B24008B6B8A6C896D74FF2DF58274FF3CF583A1
:100B3400120819F56EED24FFFFEC34FFFED3EF9499
:100B440000EE94004021AB6BAA6CA96D74FF2FF5E5
:100B54008274FF3EF5831208198F828E831208581F
:100B6400EF1F70D91E80D6AB6BAA6CA96DE56E021F
:020B7400084631
:100C6F00120800FFC43333335480FEEFA2E713544E
:050C7F007F4E02084653
:100C5800120800FF7807A2E713D8FB5401FEEF251E
:070C6800E054FE4E020846B5
:040C36007F017E00BC
:100C3A00D3EF9400EE940040147D0B7C00ED1D7000
:0E0C4A00011CED4C70F7EF1F70E61E80E322D8
:100BB6007553007554087580FFAF548F9074202FBD
:100BC600F8E62457F8E6F580120C360554E554701D
:0D0BD600020553C3940EE553940040DA224B
:100B7600AB07AA06E4F555F556D3EB9400EA648074
:100B86009480402B7C007D0AAF03AE0212087A7473
:100B9600282556F8A6057C007D0AAF03AE0212088A
:100BA6007AAA06AB070556E55670CE055580CA22C9
:100C0E00E4F553F554AF54742E2FF8E6F5808F901B
:100C1E00120C367580FF0554E55470020553C394CB
:080C2E0008E553940040DE22AA
:100C98007580FFC290D291D295AF80C295EF20E7C0
:020CA800F62232
:100CBC00AE07120C98C290C2918E80D295C295222A
:100CCC00AE07120C98D290C2918E80D295C295220A
:100CAA00ED6006EF2440FC8002AC07EC4480FF02B2
:020CBA000CBC70
:100BE3008B6B8A6C896D759012120CAAAB6BAA6C15
:100BF300A96D1208006013056DE56D7002056C1494
:0B0C0300F9120800FF120CCC80E22266
:100C84007F38120CBC7F0C120CBC7F06120CBC7F8C
:040C940001020CBC91
:10090500E4F590C280758901F58A758CC4C28DD2D3
:100915008C120C84AF25AE24120B767528057590C4
:100925000A75807F120C36120C0E120BB67B007AFC
:10093500007908E4FDFCFF120BE37B007A007936B1
:100945000D7C00E4FF120BE3308DC9C28DE4F58AFE
:10095500758CC4051AE51A7002051974022525F56A
:1009650025E43524F524D3E51A9432E5199400409D
:10097500A3E4F519F51AFB7A0079087D10FC120B32
:10098500247B007A0079367D14120AC1E4F553F50B
:1009950054742E2554F9E4FAFB120C6F0554E554F2
:1009A50070020553C39408E553940040E47B007A34
:0D09B50000792E7D077C00120AC10209198D
:030000000209C230
:0C09C200787FE4F6D8FD758172020A0906
:10080000BB010689828A83E0225002E722BBFE02F6
:09081000E32289828A83E4932229
:10081900BB010CE58229F582E5833AF583E0225094
:1008290006E92582F8E622BBFE06E92582F8E222DE
:0D083900E58229F582E5833AF583E49322F8
:10084600BB010689828A83F0225002F722BBFE0191
:02085600F3228B
:10085800F8BB010DE58229F582E5833AF583E8F0D6
:10086800225006E92582C8F622BBFE05E92582C882
:02087800F2226A
:10087A00C2D5EC30E709B2D5E4C39DFDE49CFCEE99
:10088A0030E715B2D5E4C39FFFE49EFE1208B0C359
:10089A00E49DFDE49CFC80031208B030D507C3E454
:0608AA009FFFE49EFE2208
:1009CE00020905E493A3F8E493A34003F68001F231
:1009DE0008DFF48029E493A3F85407240CC8C3332A
:1009EE00C4540F4420C8834004F456800146F6DFF9
:1009FE00E4800B0102040810204080900A4EE47E31
:100A0E00019360BCA3FF543F30E509541FFEE493ED
:100A1E00A360010ECF54C025E060A840B8E493A3B4
:100A2E00FAE493A3F8E493A3C8C582C8CAC583CADF
:100A3E00F0A3C8C582C8CAC583CADFE9DEE780BE97
:010AC0000035
:1008B000BC000BBE0029EF8DF084FFADF022E4CC2C
:1008C000F875F008EF2FFFEE33FEEC33FCEE9DECF5
:1008D000984005FCEE9DFE0FD5F0E9E4CEFD22ED3B
:1008E000F8F5F0EE8420D21CFEADF075F008EF2F85
:1008F000FFED33FD4007985006D5F0F222C398FD76
:050900000FD5F0EA2212
:00000001FF
